:100000000C94C6020C94E3020C94E3020C94E302F9
:100010000C94E3020C941D030C94E3020C94E30291
:100020000C94E3020C94E3020C94E3020C94E302BC
:100030000C94E3020C94E3020C94E3020C94E302AC
:100040000C94580F0C94E3020C94E3020C94E3021A
:100050000C946B0E0C94290E0C94E3020C94E302A6
:100060000C94E3020C94E3020C94E3020C94E3027C
:100070000C94E3020C94E3020C94E3025072657357
:1000800073206120627574746F6E206F7220277305
:10009000272F27532720746F207374617274206197
:1000A000206E65772067616D650047414D45204FA3
:1000B0005645520020205C2424242424242020207F
:1000C0005C24242424242420205C24242020202098
:1000D00020205C2424205C24242424242424202084
:1000E000205C24242424242420205C242400205C5C
:1000F0002424202020202424205C242420202020AC
:1001000024247C20242420205C24207C2024247C83
:10011000202424202020202424205C24242020208B
:100120002024247C20205C007C2024245F5F2F205E
:10013000205C7C2024245F5F2F2024247C20242426
:10014000205C2424247C2024247C2024245F5F2F12
:100150002024247C2024245F5F2F202424205F5F20
:1001600020007C2024242020205F5F207C20242469
:1001700020207C2024247C2024245C24242024246B
:100180002024247C20242424242424245C7C202453
:100190002420207C202424205C2424007C2024246F
:1001A0002020202020207C20242420207C20242487
:1001B0007C20242424245C2020242424247C202427
:1001C000242020202024247C20242420207C20245F
:1001D000247C202424007C2024242020205C24242F
:1001E0007C20242420207C2024247C202424245CA3
:1001F000202F20202424247C2024245F5F2F2024EF
:10020000247C20242420207C2024247C20242400DE
:100210007C20202424242424245C7C2020242424C6
:100220002424245C7C2024245C2020202F202024D3
:10023000247C20242424242424245C7C20202424A2
:10024000242424245C7C20242400202F202020200F
:1002500020205C20202F2020202020205C207C20BB
:10026000205C20202020202F20205C7C20202020AB
:100270002020205C20202F2020202020205C207C9B
:1002800020205C0020205F5F5F5F5F5F20202020D8
:100290005F5F5F5F5F5F2020205F5F202020202066
:1002A00020205F5F20205F5F5F5F5F5F5F20202017
:1002B000205F5F5F5F5F5F2020205F5F2000435310
:1002C0005345323031302F373230312041322062C5
:1002D000792042616F2D4C75616E204C65202D2078
:1002E000733438303837323000205C24242020200A
:1002F0005C242420202020205C2420202020205C3E
:1003000024242020205C2424202020202020205C65
:1003100024242020205C242420205C242424242441
:100320002424205C242420202020202020205C2441
:100330002424242424007C20242420207C20242401
:10034000202020205C2424242020207C2024242001
:10035000207C2024242020202020207C20242420D5
:10036000207C202424205C242420202020205C7C4D
:10037000202424202020202020205C242420202031
:10038000202424007C20242420207C2024242020BD
:10039000205C242420242420207C20242420207C51
:1003A0002024242020202020207C20242420207C85
:1003B0002024247C2024242424242424247C202459
:1003C000242020202020207C2024245F5F2F202434
:1003D00024007C20242424242424242420205C247D
:1003E000245C20202424207C20242424242424244D
:1003F0005C2020202020207C202424242424242449
:10040000247C2024242020202024247C2024242018
:1004100020205C24247C20242420207C20242400F0
:100420007C202424202020202424205C24245C20E0
:100430002F202024247C2024242020202024242039
:1004400020202020207C2024242020202024247CE4
:1004500020202424242424245C7C202024242424DC
:1004600024245C7C20202424242424245C007C205C
:1004700024245F5F7C2024247C2024242020207CD2
:100480002024247C2024245F5F7C2024242020201E
:100490002020207C2024245F5F7C202424202F2007
:1004A00020202020205C20202F2020202020205CC5
:1004B00020202F2020202020205C007C20202424AD
:1004C000242424245C7C2024242020207C20242418
:1004D0007C20242424242424245C20202020202068
:1004E0007C20242420207C20242420205F5F5F5F48
:1004F0005F5F202020205F5F5F5F5F5F2020202004
:100500005F5F5F5F5F5F00202F2020202020205C46
:10051000207C20205C2020207C20205C7C2020204F
:10052000202020205C202020202020207C20205CF7
:1005300020207C20205C0020205F5F5F5F5F5F20C9
:1005400020205F5F20202020205F5F20205F5F5FF2
:100550005F5F5F5F2020202020202020205F5F2021
:100560002020205F5F001B5B3F323568001B5B3F34
:1005700032356C001B5B25646D001B5B4B001B5B05
:10058000324A001B5B25643B2564480011241FBED2
:10059000CFEFD8E0DEBFCDBF15E0A0E0B1E0EEEBDD
:1005A000FBE202C005900D92AC3CB107D9F728E000
:1005B000ACECB5E001C01D92A930B207E1F70E9492
:1005C000650D0C94DD150C940000E8E6F0E08081E8
:1005D000826080838BB382608BBBECE6F0E080812D
:1005E0008F6080831092CC0508958091CC051816F9
:1005F00014F58091CD056FB7F89491E009C0F90129
:10060000E353FA4F4081F901E453FA4F40839F5F6F
:10061000292F30E04091CC05042E000C550B2417F7
:1006200035076CF39091CC0591509093CC056623DF
:100630001CF4789408958FEF08951F920F920FB6CF
:100640000F9211242F933F934F938F939F93EF9388
:10065000FF9343B14F7080E026C09091CC05943059
:100660000CF5242F30E0082E02C0359527950A940A
:10067000E2F720FF17C02091D10530E0082E02C01C
:10068000359527950A94E2F720FD0CC0E091CC0542
:1006900091E09E0F9093CC050E2E000CFF0BE353C0
:1006A000FA4F80838F5F8430C0F24093D105FF9171
:1006B000EF919F918F914F913F912F910F900FBE8E
:1006C0000F901F9018951F93CF93DF93182FD4E0AE
:1006D00036C0CE3011F44FEF01C040E02C2F30E097
:1006E000205E3F4F211B3109ED2FF0E0BF0162502A
:1006F000710981E090E0DC0102C0AA0FBB1F6A957E
:10070000E2F7BD016150710926233723339702C0F8
:10071000880F991FEA95E2F701972817390729F4FE
:10072000CE3010F44FE001C040EF6D2F8C2F0E94AF
:10073000FC07CF5F01C0CBE0C03158F2DF5FD8309B
:10074000D0F3DF91CF911F9108951F93CF93DF9343
:10075000CDB7DEB728970FB6F894DEBF0FBECDBF7A
:100760000E94380810E031C0E12FF0E0EF55FC4F57
:10077000908180E021C0282F30E0492F50E0082EE2
:1007800002C0559547950A94E2F740FF0DC08430AA
:1007900010F44FE001C040EFE1E0F0E0EC0FFD1F8E
:1007A000E20FF31F408307C0E1E0F0E0EC0FFD1F14
:1007B000E20FF31F10828F5F8830E8F2BE016F5F97
:1007C0007F4F812F0E941B081F5F103168F280E06D
:1007D0000E94630328960FB6F894DEBF0FBECDBF0C
:1007E000DF91CF911F910895CF93DF93CDB7DEB7FF
:1007F00028970FB6F894DEBF0FBECDBF0E94380811
:1008000080E009C0E1E0F0E0EC0FFD1FE80FF11D12
:100810009FEF90838F5F8830A8F3BE016F5F7F4F9B
:100820008DE00E941B0880E009C0E1E0F0E0EC0FE1
:10083000FD1FE80FF11D95E590838F5F8830A8F3C9
:10084000BE016F5F7F4F8CE00E941B08BE016F5F8F
:100850007F4F8EE00E941B0880E009C0E1E0F0E0DD
:10086000EC0FFD1FE80FF11D91E190838F5F883041
:10087000A8F3BE016F5F7F4F8BE00E941B08BE0193
:100880006F5F7F4F8FE00E941B0828960FB6F89489
:10089000DEBF0FBECDBFDF91CF91089561E170E063
:1008A0008AE090E00E94F00E8091D5058F938091B0
:1008B000D4058F9381EB93E09F938F930E94A912AD
:1008C0000F900F900F900F90089560E170E08AE014
:1008D00090E00E94F00E8091D3058F938091D20515
:1008E0008F9381EC93E09F938F930E94A9120F90B6
:1008F0000F900F900F9008950E94F4031092E2065B
:100900001092E1060E944E040895EF92FF920F9319
:100910001F93CF93DF93C0E069C08FE08C1B4091A1
:10092000E1065091E206480F511D9A01ADECBCEC76
:100930000E94481296958795969587959C01220F5F
:10094000331F220F331F820F931F4817590709F0D7
:100950004CC09A010E9448128C0116950795169575
:100960000795013808F041C0D0E03DC09801332719
:10097000E091E506F091E606E20FF31F808190E03A
:100980000D2E02C0959587950A94E2F780FF2AC044
:10099000220F331FF901E152FA4F808191810197B3
:1009A00059F08091D2059091D305039754F00F2E02
:1009B000FCE3EF2EF02D09C00F2EF0EFEF2EF02DFF
:1009C00004C00F2EFFE0EF2EF02D4E2DFD2EFF0C5C
:1009D0006F2D8C2F0E94FC0761E06F0D4E2D8C2F28
:1009E0000E94FC07DF5FD43008F2CF5FC03108F40B
:1009F00094CFDF91CF911F910F91FF90EF900895C9
:100A00000F931F93CF93DF93E0E14091E106509164
:100A1000E2064E0F511D9A01ADECBCEC0E9448124B
:100A2000EC01D695C795D695C795C13808F03FC05B
:100A3000CE019E01220F331F220F331F820F931FFF
:100A40004817590711F0EF5FE0CFA091E506B0918C
:100A5000E606AC0FB11DCC91CF7039F122C08C2FBE
:100A600090E00D2E02C0959587950A94E2F780FFDD
:100A700016C08091D2059091D305039714F003E13D
:100A800001C001E0402F1D2F110F612F80E00E9457
:100A9000FC0761E0610F402F80E00E94FC07DF5FF0
:100AA00001C0D0E0D430D8F202C0EF5FAECFDF910A
:100AB000CF911F910F910895DF92EF92FF920F93C4
:100AC0001F93CF93DF93CDB7DEB7C158D1090FB6CF
:100AD000F894DEBF0FBECDBF082FFE01319681E82E
:100AE000DF011D928A95E9F71BE0E5C08FE0811BCD
:100AF0004091E1065091E206480F511D9A01ADEC7C
:100B0000BCEC0E94481296958795969587959C0116
:100B1000220F331F220F331F820F931F48175907CD
:100B200009F0C8C09A010E9448129695879596953B
:100B30008795813808F0BEC07C01FF24E091E5066E
:100B4000F091E606EE0DFF1D208130E0002E02C080
:100B5000359527950A94E2F720FF93C0F701EE0F31
:100B6000FF1FE152FA4F80819181019751F48091EA
:100B7000D4059091D50501979093D5058093D40520
:100B800099C0F701EE0FFF1FE152FA4F81E090E0AC
:100B90009183808340EFD02EDD0C6D2D812F0E943C
:100BA000FC0761E06D0D40EF812F0E94FC07612F73
:100BB000802F0E94BC0F8091E1069091E2069093F5
:100BC000E4068093E306E1E0F0E0EC0FFD1FEE0D9C
:100BD000FF1D808181116EC0E1E0F0E0EC0FFD1F90
:100BE000EE0DFF1D21E020831B3011F01F3071F44A
:100BF0008091D4059091D50501969093D505809369
:100C0000D4051092D3051092D20554C01C3011F0B7
:100C10001E3071F48091D4059091D5050296909381
:100C2000D5058093D4051092D3051092D20542C009
:100C30001D3009F03FC08091D2059091D3058330DB
:100C400091055CF02091D4053091D5052C5F3F4F84
:100C50003093D5052093D4050AC02091D405309156
:100C6000D5052D5F3F4F3093D5052093D4050196D0
:100C70009093D3058093D2050E9485040E940005BD
:100C800019C08091D4059091D50501979093D50511
:100C90008093D405E1E0F0E0EC0FFD1FEE0DFF1DA9
:100CA00021E020831092D3051092D2050E94850482
:100CB0000E9400051F5F1F3008F418CF0E944E04E9
:100CC0000E946504CF57DF4F0FB6F894DEBF0FBE0A
:100CD000CDBFDF91CF911F910F91FF90EF90DF90EB
:100CE0000895EF92FF920F931F93CF93DF9380911C
:100CF000E3069091E40605962091E1063091E20624
:100D00002817390730F00E94B30F1092E4061092B2
:100D1000E306C0E085C08FE08C1B4091E106509156
:100D2000E206480F511D9A01ADECBCEC0E9448123E
:100D30008C011695079516950795013808F073C034
:100D4000C8019801220F331F220F331F820F931FF8
:100D50004817590709F063C0D0E05EC098013327F7
:100D6000E091E506F091E606E20FF31F808190E046
:100D70000D2E02C0959587950A94E2F780FF4BC02F
:100D8000CB3059F0CF3071F0CC3089F0CE30A1F0BB
:100D9000CD30B9F4EE24EA9415C00F2EF1E1EF2E18
:100DA000F02D10C00F2EF1E1EF2EF02D0BC00F2E05
:100DB000F5E5EF2EF02D06C00F2EF5E5EF2EF02D08
:100DC00001C0E12C220F331FF901E152FA4F80815B
:100DD0009181019799F0CF3089F48091D405909159
:100DE000D50501979093D5058093D4051092D3052E
:100DF0001092D2050E944E040E9465044E2DFD2ED5
:100E0000FF0C6F2D8C2F0E94FC0761E06F0D4E2DA3
:100E10008C2F0E94FC07DF5FD43008F49FCFCF5F98
:100E2000C03108F478CF0091E1061091E2060F5F1F
:100E30001F4F1093E2060093E106E0E1A8014E0F78
:100E4000511D9A01ADECBCEC0E944812EC01D69504
:100E5000C795D695C795C138E0F5CE019E01220F02
:100E6000331F220F331F820F931F4817590711F0AA
:100E7000EF5FE4CFA091E506B091E606AC0FB11D9F
:100E8000CC91CF7041F122C08C2F90E00D2E02C08A
:100E9000959587950A94E2F780FF16C08091D20558
:100EA0009091D305039714F003E101C001E0402FB6
:100EB0001D2F110F612F80E00E94FC0761E0610F80
:100EC000402F80E00E94FC07DF5F01C0D0E0D430FB
:100ED000D8F2C0E06BC0EF5FB1CF8FE08C1B4091C8
:100EE000E1065091E206480F511D9A01ADECBCECB1
:100EF0000E94481296958795969587959C01220F9A
:100F0000331F220F331F820F931F4817590709F011
:100F10004CC09A010E9448128C01169507951695AF
:100F20000795013808F041C0D0E03DC09801332753
:100F3000E091E506F091E606E20FF31F808190E074
:100F40000D2E02C0959587950A94E2F780FF2AC07E
:100F5000220F331FF901E152FA4F808191810197ED
:100F600059F08091D2059091D305039754F00F2E3C
:100F7000FCE3EF2EF02D09C00F2EF0EFEF2EF02D39
:100F800004C00F2EFFE0EF2EF02D4E2DFD2EFF0C96
:100F90006F2D8C2F0E94FC0761E06F0D4E2D8C2F62
:100FA0000E94FC07DF5FD43008F2CF5FC03108F445
:100FB00094CFDF91CF911F910F91FF90EF90089503
:100FC0008091E1069091E2068538924010F081E030
:100FD000089580E00895E82FF0E0EE0FFF1FE4533E
:100FE000FC4F808191819093E6068093E5060895F9
:100FF00080E80E94BE0E08951F93CF93DF93803147
:10100000B0F46830A0F4142FC62FD82F81E00E94CE
:10101000EA0E6C2F677080E1689F900111248D2F7C
:101020008F70822B0E94EA0E812F0E94EA0EDF91C0
:10103000CF911F9108950F931F93CF938031A0F408
:101040008B01C82F83E00E94EA0E8C2F8F700E94C4
:10105000EA0EC0E007C0F801EC0FF11D80810E948C
:10106000EA0ECF5FC830B8F3CF911F910F9108956A
:101070008FE00E94EA0E08950E94F8070E94E502A0
:1010800040E060E07BE480E090E00E94D60D0E94AA
:10109000320F0E94A50F0E945410789408954F9229
:1010A0005F926F927F928F929F92AF92BF92CF92F8
:1010B000DF92EF92FF92CF93DF930E94010F0E9485
:1010C000290F0E94010F0E94200F85E20E94130F3A
:1010D00064E070E08AE090E00E94F00E87E395E023
:1010E0009F938F930E94BF1265E070E08AE090E0CA
:1010F0000E94F00E87E095E09F938F930E94BF12AD
:1011000066E070E08AE090E00E94F00E8BEB94E0E5
:101110009F938F930E94BF1267E070E08AE090E097
:101120000E94F00E8EE694E09F938F930E94BF1270
:1011300068E070E08AE090E00E94F00E80E294E0C7
:101140009F938F930E94BF1269E070E08AE090E065
:101150000E94F00E82ED93E09F938F930E94BF1246
:101160006AE070E08AE090E00E94F00E84E893E08C
:101170009F938F930E94BF126BE070E08AE090E033
:101180000E94F00E86E393E09F938F930E94BF121C
:101190006CE070E08AE090E00E94F00E89EE92E050
:1011A0009F938F930E94BF126EE070E08AE090E000
:1011B0000E94F00E8EEB92E09F938F930E94BF12DD
:1011C0000E94A5030E94480F4B015C0188EE93E04A
:1011D0009093E8068093E7066FE070E08AE090E085
:1011E0000E94F00E0E940A0F85E595E09F938F9371
:1011F0008091E8068F938091E7068F938CE595E0C8
:101200009F938F930E94A91280E00E94EB0760E1F8
:1012100070E08AE090E00E94F00E0E940A0F809138
:10122000D7058F938091D6058F938FE695E09F9396
:101230008F930E94A9128DB79EB74E960FB6F89461
:101240009EBF0FBE8DBFD0E00E941D0E882309F403
:10125000CAC080910308909104080E946B12C82FA5
:101260008D3611F08D3409F59091D90581E08927EB
:101270008093D905882369F061E170E08AE090E00D
:101280000E94F00E0E940A0F82E895E00E94E5128B
:101290000CC061E170E08AE090E00E94F00E0E94D4
:1012A0000A0F89E995E00E94E512C13321F588EE25
:1012B00093E09093E8068093E7066FE070E08AE0A1
:1012C00090E00E94F00E0E940A0F85E595E09F9342
:1012D0008F938091E8068F938091E7068F938CE53A
:1012E00095E09F938F930E94A9120F900F900F90FB
:1012F0000F900F900F90C23321F584EF91E09093FF
:10130000E8068093E7066FE070E08AE090E00E94D4
:10131000F00E0E940A0F82EB95E09F938F938091CD
:10132000E8068F938091E7068F938CE595E09F9375
:101330008F930E94A9120F900F900F900F900F9013
:101340000F90C33321F58AEF90E09093E8068093E5
:10135000E7066FE070E08AE090E00E94F00E0E94E5
:101360000A0F87EB95E09F938F938091E8068F9308
:101370008091E7068F938CE595E09F938F930E9471
:10138000A9120F900F900F900F900F900F90C437ED
:1013900011F0C43549F58091D6059091D705019695
:1013A00063E070E00E94F3118093D6059093D70517
:1013B0000E94EB0760E170E08AE090E00E94F00E8E
:1013C0000E940A0F8091D7058F938091D6058F9345
:1013D0008FE695E09F938F930E94A9120F900F9034
:1013E0000F900F9001C0CFEFC337B1F1C335A1F11A
:1013F0000E94F5028F3F81F50E94480F6B017C012E
:101400002B013C01481859086A087B082091E7061F
:101410003091E806ADECBCEC0E9448129695879599
:1014200096958795A0E0B0E084159505A605B705CB
:1014300008F00ACF8D2F0E9463038D2F90E0019654
:101440008F719078992324F40197806E9F6F019695
:10145000D82F46015701F8CEDF91CF91FF90EF9042
:10146000DF90CF90BF90AF909F908F907F906F90C4
:101470005F904F9008952F923F924F925F926F929C
:101480007F928F929F92AF92BF92CF92DF92EF9214
:10149000FF920F931F93CF93DF93CDB7DEB72897BB
:1014A0000FB6F894DEBF0FBECDBF1C0188E0E9E99E
:1014B000F3E0DE01119601900D928A95E1F7C12CBF
:1014C000D12C4EC00E94480F2B013C010E943808CD
:1014D00034C0F601EE0FFF1F88248394912C8C0EEC
:1014E0009D1EE80DF91D80819181F701EE0FFF1F10
:1014F000EE0FFF1FEE0FFF1FE00FF11FEE0FFF1F9C
:10150000E80FF91F80819181019729F44CE3602F46
:101510008E2D0E94FC070F5F1F4F02C000E010E0FD
:1015200008301105B4F28FEFE81AF80A02C0E12C76
:10153000F12C9AE0E916F1048CF30E94480F910116
:10154000220F331F53014201820E931EA11CB11CB6
:10155000681579058A059B0550F38FEFC81AD80ADC
:1015600094E0C916D1040CF4ADCF0E943808289637
:101570000FB6F894DEBF0FBECDBFDF91CF911F91A4
:101580000F91FF90EF90DF90CF90BF90AF909F9022
:101590008F907F906F905F904F903F902F90089525
:1015A00085E20E94130F64E070E08AE090E00E9400
:1015B000F00E84E892E09F938F930E94BF1265E043
:1015C00070E08AE090E00E94F00E8AE492E09F933F
:1015D0008F930E94BF1266E070E08AE090E00E9464
:1015E000F00E80E192E09F938F930E94BF1267E01C
:1015F00070E08AE090E00E94F00E86ED91E09F930B
:101600008F930E94BF1268E070E08AE090E00E9431
:10161000F00E8CE991E09F938F930E94BF1269E0D6
:1016200070E08AE090E00E94F00E82E691E09F93E5
:101630008F930E94BF126AE070E08AE090E00E94FF
:10164000F00E88E291E09F938F930E94BF126BE0AF
:1016500070E08AE090E00E94F00E8EEE90E09F93A2
:101660008F930E94BF126CE070E08AE090E00E94CD
:10167000F00E84EB90E09F938F930E94BF128DB782
:101680009EB742960FB6F8949EBF0FBE8DBF0895C9
:10169000CF93DF93C4E0D0E008C0BE018AE090E0C1
:1016A0000E94F00E0E940A0F2196CD30D105ACF3B6
:1016B000DF91CF9108950E94010F65E170E08AE00B
:1016C00090E00E94F00E8091D7058F938091D6050F
:1016D0008F938FE695E09F938F930E94A91261E10B
:1016E00070E08AE090E00E94F00E8091D5058F9323
:1016F0008091D4058F9381EB93E09F938F930E9409
:10170000A91262E170E08AE090E00E94F00E809100
:10171000E7069091E8062DB73EB7285F3F4F0FB61A
:10172000F8943EBF0FBE2DBF883E33E0930791F47F
:1017300025E535E03F932F939F938F938CE595E0BC
:101740009F938F930E94A9120F900F900F900F906C
:101750000F900F908091E7069091E806843F21E07A
:10176000920791F422EB35E03F932F939F938F9351
:101770008CE595E09F938F930E94A9120F900F9094
:101780000F900F900F900F908091E7069091E806D0
:101790008A3F910591F427EB35E03F932F939F9378
:1017A0008F938CE595E09F938F930E94A9120F90E1
:1017B0000F900F900F900F900F908091E7069091EF
:1017C000E8060E943B0A0E947C040E94F5020E94E7
:1017D000240E089598B19E7F692B68B9E82FF0E038
:1017E000E058FC4F808182B908958F929F92AF920A
:1017F000BF92CF92DF92EF92FF921F93CF93DF932E
:101800008FE187B98FEF81B90E94480F6B017C018E
:10181000C0E019C18091D4059091D5058436910519
:101820008CF0C11105C06AE070E00E94F31130C075
:101830002AE030E0B9010E94F311CB01B9010E9406
:10184000F31126C09C012A5031092A35310568F46C
:10185000C11105C06AE070E00E94F31119C06AE08E
:1018600070E00E94F311862F13C09C01265F3F4F4A
:101870002A30310520F4C11108C0819509C0873F85
:101880002FEF920724F0C0E003C08AE001C08AE095
:101890006C2F0E94EA0B81E08C1BC82F8091D2052F
:1018A0009091D3058130910521F488B1846088B985
:1018B00017C08230910521F488B18C6088B910C0BE
:1018C0008330910534F088B18C6188B90E94D00AC8
:1018D00007C0892B29F488B1837E88B90E94480B00
:1018E0000E941D0E882309F45FC080910308909127
:1018F00004080E946B12D82F803711F0803519F53B
:101900009091D80581E089278093D805882381F0BC
:1019100063E170E08AE090E00E94F00E8FEB95E0CA
:101920000E94E5120E94B30F88B1826088B90BC093
:1019300063E170E08AE090E00E94F00E0E940A0FDE
:1019400088B18D7F88B9DD3611F0DD3411F59091C5
:10195000D90581E089278093D905882369F064E15E
:1019600070E08AE090E00E94F00E0E940A0F82E888
:1019700095E00E94E51219C064E170E08AE090E011
:101980000E94F00E0E940A0F89E995E00E94E5127C
:101990000CC08091D905882341F0DE3611F0DE3489
:1019A00021F40E94710601C0DFEF8091D8058111FA
:1019B0004AC00E94F502182F882321F0D63611F074
:1019C000D63419F483E00E945C05113021F0D4363E
:1019D00011F0D43419F482E00E945C05123021F039
:1019E000D33711F0D33519F481E00E945C05133030
:1019F00021F0D13611F0D13419F480E00E945C0559
:101A00000E94480F4B015C018091D90581111BC0D8
:101A10002091E7063091E806ADECBCEC0E9448123C
:101A20009695879596958795A7019601280F391F5A
:101A3000411D511D82169306A406B50620F00E9492
:101A40007106750164010E94E007882309F4E2CE63
:101A5000DF91CF911F91FF90EF90DF90CF90BF90DB
:101A6000AF909F908F9008956EE070E08AE090E0D4
:101A70000E94F00E8AEA90E09F938F930E94BF121B
:101A80006FE070E08AE090E00E94F00E8CE790E05A
:101A90009F938F930E94BF120F900F900F900F9003
:101AA0000E941D0E882351F0809103089091040834
:101AB0000E946B12833731F0833521F00E94F502CA
:101AC0008F3F71F30E944F0808950E943C080E94C6
:101AD0004F080E945B0B0E94F50B0E94340DF9CF5A
:101AE000CF93C82F8A3019F48DE00E94700D9FB7F4
:101AF000907802C0992329F18091EA068F3FD1F3B3
:101B0000F894E091E90681E08E0F8093E906F0E019
:101B1000E551F94FC0838091EA068F5F8093EA0612
:101B20008091E9068F3F11F41092E906E1ECF0E0B4
:101B3000808180628083992339F0789480E090E0FE
:101B400005C081E090E002C080E090E0CF91089570
:101B50008091FC078823E1F32FB72078F8948091D7
:101B6000EA073091FC0790E0831B91095AF4E09159
:101B7000EA078091FC07F0E0E81BF109E550F84F17
:101B800080810AC0E091EA078091FC07F0E0E81B41
:101B9000F109E551F84F80819091FC0791509093A5
:101BA000FC07222309F0789490E008951092E9064A
:101BB0001092EA061092EA071092FC071092FB07B7
:101BC0004093DA05DC01CB01880F991FAA1FBB1FC8
:101BD000880F991FAA1FBB1F9C01AD01220F331F45
:101BE000441F551F60E072E18AE790E00E942912CD
:101BF000BA01A9014F5F5F4F6F4F7F4FDB01CA01F1
:101C00001AF40196A11DB11DB595A79597958795D5
:101C100001979093C5008093C400E1ECF0E088E167
:101C20008083808180688083E3E0F8E08BE893E044
:101C3000938382839183808308959091FC0781E050
:101C4000911101C080E008951092EA071092FC07FC
:101C500008951F920F920FB60F9211242F938F9316
:101C60009F93EF93FF938091EA06882329F1809157
:101C7000E9062091EA0690E0821B91095AF4E0916E
:101C8000E9068091EA06F0E0E81BF109E651F84F19
:101C900090810AC0E091E9068091EA06F0E0E81B35
:101CA000F109E551F94F90818091EA0681508093C6
:101CB000EA069093C60005C0E1ECF0E080818F7DDC
:101CC0008083FF91EF919F918F912F910F900FBE85
:101CD0000F901F9018951F920F920FB60F9211241C
:101CE0002F933F934F935F936F937F938F939F9324
:101CF000AF93BF93CF93EF93FF93C091C6008091B2
:101D0000DA05882349F08091EA068F3F29F060E0E8
:101D100070E08C2F0E94700D8091FC07803120F0C4
:101D200081E08093FB0718C0CD3009F4CAE0E09150
:101D3000EA0781E08E0F8093EA07F0E0E551F84F63
:101D4000C0838091FC078F5F8093FC078091EA0736
:101D5000803111F41092EA07FF91EF91CF91BF917A
:101D6000AF919F918F917F916F915F914F913F9133
:101D70002F910F900FBE0F901F90189594B1906BFC
:101D800094B995B1906195B990E59CBD883021F0EA
:101D9000803211F0823019F491E09DBD01C01DBC6C
:101DA000803269F028F4883071F0803161F00EC023
:101DB000803429F0803851F48CB581608CBD8CB5AD
:101DC00082608CBD03C08CB581608CBD85B18F7E77
:101DD00085B908958EBD0DB407FEFDCF8EB508956B
:101DE0009F938F937F936F9383E895E09F938F9357
:101DF0000E94BF120F900F900F900F900F900F90B6
:101E000008958EE795E09F938F930E94BF120F90E5
:101E10000F9008958AE795E09F938F930E94BF12D9
:101E20000F900F9008951F928F9384E795E09F93F2
:101E30008F930E94BF120F900F900F900F900895F4
:101E40008DE695E09F938F930E94BF120F900F90A5
:101E5000089586E695E09F938F930E94BF120F909E
:101E60000F9008951092DB051092DC051092DD05AD
:101E70001092DE0516BC8CE787BD92E094BD83E02E
:101E800085BDEEE6F0E080818260808395BB089599
:101E90008FB7282F2078F8946091DB057091DC05CE
:101EA0008091DD059091DE05222309F07894089554
:101EB0001F920F920FB60F9211248F939F93AF939F
:101EC000BF938091DB059091DC05A091DD05B09179
:101ED000DE050196A11DB11D8093DB059093DC0505
:101EE000A093DD05B093DE05BF91AF919F918F91D7
:101EF0000F900FBE0F901F9018959C0140E050E08E
:101F000060E472E48FE090E00E940712C901089536
:101F1000CF92DF92EF92FF926B017C01BA0180E0D9
:101F200090E00E94F810A70196010E94861120E01F
:101F300030E048EC52E40E9457100E94C910CB01D7
:101F4000FF90EF90DF90CF9008951092850010924F
:101F500084008AB180618AB983E2809380008AE13B
:101F60008093810008951092890010928800109249
:101F70008B0010928A000895CF93DF9321E030E028
:101F8000309389002093880030938B0020938A003F
:101F9000833039F48FE093E09093FE078093FD0740
:101FA0001AC0823039F48AEB92E09093FE07809356
:101FB000FD0711C0813039F48EE692E09093FE0760
:101FC0008093FD0708C0811106C08BE092E09093DA
:101FD000FE078093FD076B3069F480E090E0A0E09D
:101FE000B0E48093FF0790930008A0930108B0939A
:101FF00002083BC06C3069F480E090E0A0E2B1E4FC
:102000008093FF0790930008A0930108B093020803
:102010002CC06D3069F480E090E0A8E4B2E48093D5
:10202000FF0790930008A0930108B09302081DC019
:102030006E3069F480E090E0A4EBB2E48093FF0797
:1020400090930008A0930108B09302080EC06F306F
:1020500061F480E090E0A4ECB2E48093FF079093F9
:102060000008A0930108B09302088091FD079091A9
:10207000FE070E947D0FEC016091FF077091000840
:102080008091010890910208AE010E94880F21976B
:10209000D0938900C0938800019790938B00809320
:1020A0008A00DF91CF9108951092B20008950E94A6
:1020B0006B100C944C110E94451158F00E943E1177
:1020C00040F029F45F3F29F00C94351151110C9424
:1020D00080110C943B110E945D1168F39923B1F3B8
:1020E000552391F3951B550BBB27AA27621773073E
:1020F000840738F09F5F5F4F220F331F441FAA1FD2
:10210000A9F335D00E2E3AF0E0E832D0915050408D
:10211000E695001CCAF72BD0FE2F29D0660F771F3B
:10212000881FBB1F261737074807AB07B0E809F021
:10213000BB0B802DBF01FF2793585F4F3AF09E3FA6
:10214000510578F00C9435110C9480115F3FE4F345
:10215000983ED4F3869577956795B795F7959F5FE9
:10216000C9F7880F911D9695879597F90895E1E035
:10217000660F771F881FBB1F621773078407BA0794
:1021800020F0621B730B840BBA0BEE1F88F7E095EF
:1021900008950E94651188F09F5798F0B92F9927EC
:1021A000B751B0F0E1F0660F771F881F991F1AF042
:1021B000BA95C9F714C0B13091F00E947F11B1E017
:1021C00008950C947F11672F782F8827B85F39F016
:1021D000B93FCCF3869577956795B395D9F73EF4DB
:1021E00090958095709561957F4F8F4F9F4F089583
:1021F000E89409C097FB3EF49095809570956195A1
:102200007F4F8F4F9F4F9923A9F0F92F96E9BB2756
:102210009395F695879577956795B795F111F8CFD2
:10222000FAF4BB0F11F460FF1BC06F5F7F4F8F4F3D
:102230009F4F16C0882311F096E911C0772321F033
:102240009EE8872F762F05C0662371F096E8862FCB
:1022500070E060E02AF09A95660F771F881FDAF722
:10226000880F9695879597F9089597F99F6780E865
:1022700070E060E008959FEF80EC089500240A94D8
:102280001616170618060906089500240A94121651
:102290001306140605060895092E0394000C11F484
:1022A000882352F0BB0F40F4BF2B11F460FF04C031
:1022B0006F5F7F4F8F4F9F4F089557FD9058440F8A
:1022C000551F59F05F3F71F04795880F97FB991F95
:1022D00061F09F3F79F08795089512161306140652
:1022E000551FF2CF4695F1DF08C0161617061806DF
:1022F000991FF1CF86957105610508940895E894BA
:10230000BB2766277727CB0197F908950E9499117B
:102310000C944C110E943E1138F00E94451120F09F
:10232000952311F00C9435110C943B1111240C944D
:1023300080110E945D1170F3959FC1F3950F50E0DD
:10234000551F629FF001729FBB27F00DB11D639F67
:10235000AA27F00DB11DAA1F649F6627B00DA11D0D
:10236000661F829F2227B00DA11D621F739FB00DB3
:10237000A11D621F839FA00D611D221F749F332723
:10238000A00D611D231F849F600D211D822F762FBC
:102390006A2F11249F5750409AF0F1F088234AF099
:1023A000EE0FFF1FBB1F661F771F881F9150504005
:1023B000A9F79E3F510580F00C9435110C948011C3
:1023C0005F3FE4F3983ED4F3869577956795B7958C
:1023D000F795E7959F5FC1F7FE2B880F911D9695A6
:1023E000879597F9089597FB072E16F4009407D068
:1023F00077FD09D00E94571207FC05D03EF4909556
:1024000081959F4F0895709561957F4F0895A1E242
:102410001A2EAA1BBB1BFD010DC0AA1FBB1FEE1F5E
:10242000FF1FA217B307E407F50720F0A21BB30BA9
:10243000E40BF50B661F771F881F991F1A9469F725
:1024400060957095809590959B01AC01BD01CF0181
:102450000895052E97FB1EF400940E94401257FD2C
:1024600007D00E94071207FC03D04EF40C944012D0
:1024700050954095309521953F4F4F4F5F4F0895B0
:1024800090958095709561957F4F8F4F9F4F0895E0
:10249000A29FB001B39FC001A39F700D811D1124A5
:1024A000911DB29F700D811D1124911D0895AA1BCD
:1024B000BB1B51E107C0AA1FBB1FA617B70710F02F
:1024C000A61BB70B881F991F5A95A9F78095909561
:1024D000BC01CD010895CF93DF93EC012B8120FF48
:1024E00033C026FF0AC02F7B2B838E819F810196EC
:1024F0009F838E838A8190E029C022FF0FC0E881EC
:10250000F9818081082E000C990B009719F4206244
:102510002B831AC03196F983E8830EC0EA85FB85C8
:10252000099597FF09C02B81019611F080E201C047
:1025300080E1822B8B8308C02E813F812F5F3F4F2C
:102540003F832E83992702C08FEF9FEFDF91CF91BA
:102550000895A0E0B0E0EFEAF2E10C94B615AE0108
:102560004B5F5F4FFA0161917191AF018091050856
:10257000909106080E941513E2E00C94D215A0E099
:10258000B0E0E5ECF2E10C94B415AE01495F5F4FA9
:10259000DA016D917D91AD0103E018E0F8018281CF
:1025A0009381DC0113962C911397286013962C933A
:1025B0000E941513D8011296ED91FC911397238177
:1025C000277F2383E4E00C94D0150F931F93CF93C0
:1025D000DF93E0910508F0910608238121FF1BC0DD
:1025E0008C01D0E0C0E0F80181918F016091050875
:1025F00070910608DB011896ED91FC9119978823DC
:1026000031F00995892B79F3DFEFCFEFECCF8AE03A
:102610000995892B19F08FEF9FEF02C08D2F9C2F0A
:10262000DF91CF911F910F910895ABE0B0E0EBE106
:10263000F3E10C94A6156C017B018A01FC01178261
:102640001682838181FFCCC1CE0101963C01F60147
:102650009381F70193FD859193FF81917F018823F9
:1026600009F4BAC1853239F493FD859193FF8191C4
:102670007F01853229F4B60190E00E940C15E7CF66
:10268000912C212C312CFFE1F315D8F08B3279F00D
:1026900038F4803279F08332A1F4232D20611DC0FB
:1026A0008D3261F0803369F4232D216016C0832DB3
:1026B0008260382EE32DE4603E2E2AC0F32DF860B0
:1026C0001DC037FC2DC020ED280F2A3040F08E327F
:1026D000B9F436FC81C1232D2064322E19C036FE98
:1026E00006C08AE0989E200D1124922E11C0EAE0C7
:1026F0002E9E200D1124222EF32DF0623F2E08C0B5
:102700008C3621F4832D8068382E02C0883641F43F
:10271000F70193FD859193FF81917F018111B3CFE3
:10272000982F9F7D9554933028F40C5F1F4F9FE3A3
:1027300099830DC0833631F0833771F0833509F00A
:1027400059C021C0F801808189830E5F1F4F882402
:102750008394912C530113C02801F2E04F0E511CB9
:10276000F801A080B18036FE03C0692D70E002C080
:102770006FEF7FEFC5010E9401154C018201F32D1F
:10278000FF773F2E16C0280122E0420E511CF801AF
:10279000A080B18036FE03C0692D70E002C06FEFEB
:1027A0007FEFC5010E94F6144C01F32DF0683F2E17
:1027B000820133FC1BC0822D90E088169906B0F48C
:1027C000B60180E290E00E940C152A94F4CFF50146
:1027D00037FC859137FE81915F01B60190E00E9440
:1027E0000C1521102A9421E0821A91088114910479
:1027F00071F7E8C0843611F0893641F5F80137FEEB
:1028000007C060817181828193810C5F1F4F08C076
:1028100060817181072E000C880B990B0E5F1F4F92
:10282000F32DFF763F2E97FF09C090958095709508
:1028300061957F4F8F4F9F4FF0683F2E2AE030E029
:10284000A3010E944815882E861845C0853731F4AB
:10285000232D2F7EB22E2AE030E025C0932D997FC4
:10286000B92E8F36C1F018F4883579F0B5C08037AD
:1028700019F0883721F0B0C0E92FE061BE2EB4FE18
:102880000DC0FB2DF460BF2E09C034FE0AC0292FF5
:102890002660B22E06C028E030E005C020E130E01E
:1028A00002C020E132E0F801B7FE07C0608171810B
:1028B000828193810C5F1F4F06C06081718180E02F
:1028C00090E00E5F1F4FA3010E944815882E8618C6
:1028D000FB2DFF773F2E36FE0DC0232D2E7FA22E1F
:1028E000891458F434FE0BC032FC09C0832D8E7E4F
:1028F000A82E05C0B82CA32C03C0B82C01C0B92C3D
:10290000A4FE0FC0FE01E80DF11D8081803321F48B
:102910009A2D997EA92E09C0A2FE06C0B394B39445
:1029200004C08A2D867809F0B394A3FC11C0A0FEE0
:1029300006C0B21488F4280C922C9B180EC0B21456
:1029400060F4B60180E290E00E940C15B394F7CFDA
:10295000B21418F42B1802C0982C212CA4FE10C01D
:10296000B60180E390E00E940C15A2FE17C0A1FC06
:1029700003C088E790E002C088E590E0B6010CC093
:102980008A2D867859F0A1FE02C08BE201C080E258
:10299000A7FC8DE2B60190E00E940C15891438F472
:1029A000B60180E390E00E940C159A94F7CF8A94C8
:1029B000F301E80DF11D8081B60190E00E940C1535
:1029C0008110F5CF222009F442CEB60180E290E0DA
:1029D0000E940C152A94F6CFF6018681978102C0D9
:1029E0008FEF9FEF2B96E2E10C94C215FC0105904E
:1029F000615070400110D8F7809590958E0F9F1F01
:102A00000895FC016150704001900110D8F7809545
:102A100090958E0F9F1F08950F931F93CF93DF9371
:102A2000FB01238121FD03C08FEF9FEF2CC022FF0C
:102A300016C046815781248135814217530744F4DB
:102A4000A081B1819D012F5F3F4F318320838C9303
:102A5000268137812F5F3F4F3783268314C08B0138
:102A6000EC01FB010084F185E02D0995892BE1F64D
:102A7000D80116968D919C911797019617969C9365
:102A80008E931697CE01DF91CF911F910F910895EC
:102A9000FA01AA27283051F1203181F1E8946F938F
:102AA0006E7F6E5F7F4F8F4F9F4FAF4FB1E03ED035
:102AB000B4E03CD0670F781F891F9A1FA11D680FD3
:102AC000791F8A1F911DA11D6A0F711D811D911D06
:102AD000A11D20D009F468943F912AE0269F11247B
:102AE0003019305D3193DEF6CF010895462F4770DF
:102AF000405D4193B3E00FD0C9F7F6CF462F4F703A
:102B0000405D4A3318F0495D31FD4052419302D097
:102B1000A9F7EACFB4E0A69597958795779567953D
:102B2000BA95C9F700976105710508959B01AC013D
:102B30000A2E06945795479537952795BA95C9F764
:102B4000620F731F841F951FA01D08952F923F923F
:102B50004F925F926F927F928F929F92AF92BF92AD
:102B6000CF92DF92EF92FF920F931F93CF93DF9359
:102B7000CDB7DEB7CA1BDB0B0FB6F894DEBF0FBEB6
:102B8000CDBF09942A88398848885F846E847D8403
:102B90008C849B84AA84B984C884DF80EE80FD8005
:102BA0000C811B81AA81B981CE0FD11D0FB6F8947B
:0E2BB000DEBF0FBECDBFED010895F894FFCF3C
:102BBE000000000000000000000000000000000007
:102BCE0000000000000000000000000000000000F7
:102BDE0000000100010000000000010001000000E3
:102BEE0001000000000000000100000000000100D4
:102BFE0001000000000000000100000000000100C4
:102C0E0001000000000000000100000000000100B3
:102C1E0001000000010000000100000000000100A2
:102C2E000000010001000000000001000100000092
:102C3E000000000000000000000000000000000086
:102C4E000000000000000000000000000000000076
:102C5E000000000000000000000000000000000066
:102C6E000000000000000100010001000000000053
:102C7E000000000001000100010001000100000041
:102C8E000000010000000000010001000100000032
:102C9E000000000000000100010001000000000023
:102CAE000000000000000100010001000000000013
:102CBE000000000000000000000001000100000004
:102CCE0000000100010000000000010001000000F2
:102CDE0000000100010001000100010000000000E1
:102CEE0000000000010001000100000000000000D3
:102CFE0000000000000000000000000000000000C6
:102D0E0000000000000000000000000000000000B5
:102D1E0000000000000001000100000000000000A3
:102D2E000000000001000100010001000000000091
:102D3E000000000001000000000001000000000083
:102D4E000000000000000000010001000000000073
:102D5E000000000000000100010000000000000063
:102D6E000000000001000100010000000000000052
:102D7E000000000001000100010001000000000041
:102D8E000000000001000100010001000000000031
:102D9E000000000000000000000000000000000025
:102DAE000000000000000000000000000000000015
:102DBE000000000000000100010000000000000003
:102DCE0000000000010001000100000000000000F2
:102DDE0000000000010001000100000000000000E2
:102DEE0000000000000001000100000000000000D3
:102DFE0000000000000001000100000000000000C3
:102E0E0000000000000001000100000000000000B2
:102E1E0000000000010001000100010000000000A0
:102E2E000000000001000100010001000000000090
:102E3E003F065B4F666D7D077F6F4000000003000D
:102E4E00000000700DA80D0000A0014002E002007D
:102E5E00017FA47F00EF1DE900FFAA5500060906B9
:102E6E000047616D652053636F72653A20253464A7
:102E7E0000436F6D626F3A2025346400D40453040E
:102E8E00D203000000040402800801022004800026
:102E9E000002080240010440022001101010100030
:102EAE000802200440088004400220044008044028
:102EBE0040022004400804400820011010101000A9
:102ECE000000000000080808800402044002088088
:102EDE00000201044008800402200110101220009C
:102EEE00000220044008044040082004400804402A
:102EFE00400120044004044040082001101010023C
:102F0E000800001010101000010201000001000462
:102F1E00800402044002088000020104400880047C
:102F2E00022001101012200001022004400801802E
:102F3E00400220044008044040022004400804409F
:102F4E0040022001101010000000000000000404D8
:102F5E0004800402084002800001020808400101BA
:102F6E0040082004101010100100022002400480BE
:102F7E00024002200440080240400220044008049F
:102F8E0040012001000000080808800402044008E7
:102F9E0080000004020440080440022001101010BA
:102FAE001000000220044008800440022004400863
:102FBE00044040022004400804400220011010107A
:102FCE0010000000000000080808800402044002FF
:102FDE000880000201044008800402200110101233
:102FEE002000000220044008044040022004400853
:102FFE00044040022004400804404002200110100A
:10300E0010000000004E6F726D616C0047616D65BF
:10301E002053706565643A2025346420257300536F
:10302E00656C656374656420547261636B3A202528
:10303E0064004D616E75616C206D6F646520616317
:10304E00746976617465642E004D616E75616C20D5
:10305E006D6F64652064656163746976617465641F
:10306E002E00466173740045787472656D65004775
:0C307E00616D6520506175736564000091
:00000001FF
